{
  "contractName": "smartAuction",
  "abi": [
    {
      "inputs": [
        {
          "internalType": "uint256",
          "name": "_biddingTime",
          "type": "uint256"
        }
      ],
      "stateMutability": "nonpayable",
      "type": "constructor"
    },
    {
      "anonymous": false,
      "inputs": [
        {
          "indexed": false,
          "internalType": "address",
          "name": "winner",
          "type": "address"
        },
        {
          "indexed": false,
          "internalType": "uint256",
          "name": "amount",
          "type": "uint256"
        }
      ],
      "name": "auctionEnded",
      "type": "event"
    },
    {
      "anonymous": false,
      "inputs": [
        {
          "indexed": false,
          "internalType": "address",
          "name": "bidder",
          "type": "address"
        },
        {
          "indexed": false,
          "internalType": "uint256",
          "name": "amount",
          "type": "uint256"
        }
      ],
      "name": "highestBidIncreased",
      "type": "event"
    },
    {
      "inputs": [],
      "name": "auctionEndTime",
      "outputs": [
        {
          "internalType": "uint256",
          "name": "",
          "type": "uint256"
        }
      ],
      "stateMutability": "view",
      "type": "function",
      "constant": true
    },
    {
      "inputs": [],
      "name": "beneficiary",
      "outputs": [
        {
          "internalType": "address",
          "name": "",
          "type": "address"
        }
      ],
      "stateMutability": "view",
      "type": "function",
      "constant": true
    },
    {
      "inputs": [],
      "name": "highestBid",
      "outputs": [
        {
          "internalType": "uint256",
          "name": "",
          "type": "uint256"
        }
      ],
      "stateMutability": "view",
      "type": "function",
      "constant": true
    },
    {
      "inputs": [],
      "name": "highestBidder",
      "outputs": [
        {
          "internalType": "address",
          "name": "",
          "type": "address"
        }
      ],
      "stateMutability": "view",
      "type": "function",
      "constant": true
    },
    {
      "inputs": [],
      "name": "bid",
      "outputs": [],
      "stateMutability": "payable",
      "type": "function",
      "payable": true
    },
    {
      "inputs": [],
      "name": "withdraw",
      "outputs": [
        {
          "internalType": "bool",
          "name": "",
          "type": "bool"
        }
      ],
      "stateMutability": "nonpayable",
      "type": "function"
    },
    {
      "inputs": [],
      "name": "auctionEnd",
      "outputs": [],
      "stateMutability": "nonpayable",
      "type": "function"
    },
    {
      "inputs": [],
      "name": "auctionAlreadyEnded",
      "outputs": [
        {
          "internalType": "bool",
          "name": "",
          "type": "bool"
        }
      ],
      "stateMutability": "view",
      "type": "function",
      "constant": true
    }
  ],
  "bytecode": "0x608060405234801561001057600080fd5b50604051610b1f380380610b1f8339818101604052810190610032919061009f565b336000806101000a81548173ffffffffffffffffffffffffffffffffffffffff021916908373ffffffffffffffffffffffffffffffffffffffff160217905550804261007e91906100c8565b6001819055505061016e565b60008151905061009981610157565b92915050565b6000602082840312156100b157600080fd5b60006100bf8482850161008a565b91505092915050565b60006100d38261011e565b91506100de8361011e565b9250827fffffffffffffffffffffffffffffffffffffffffffffffffffffffffffffffff0382111561011357610112610128565b5b828201905092915050565b6000819050919050565b7f4e487b7100000000000000000000000000000000000000000000000000000000600052601160045260246000fd5b6101608161011e565b811461016b57600080fd5b50565b6109a28061017d6000396000f3fe60806040526004361061007b5760003560e01c80634b449cba1161004e5780634b449cba146100f75780635983708c1461012257806391f901571461014d578063d57bde79146101785761007b565b80631998aeef146100805780632a24f46c1461008a57806338af3eed146100a15780633ccfd60b146100cc575b600080fd5b6100886101a3565b005b34801561009657600080fd5b5061009f610358565b005b3480156100ad57600080fd5b506100b66104cf565b6040516100c39190610794565b60405180910390f35b3480156100d857600080fd5b506100e16104f3565b6040516100ee91906107d8565b60405180910390f35b34801561010357600080fd5b5061010c61061e565b6040516101199190610873565b60405180910390f35b34801561012e57600080fd5b50610137610624565b60405161014491906107d8565b60405180910390f35b34801561015957600080fd5b5061016261063b565b60405161016f9190610794565b60405180910390f35b34801561018457600080fd5b5061018d610661565b60405161019a9190610873565b60405180910390f35b6001544211156101e8576040517f08c379a00000000000000000000000000000000000000000000000000000000081526004016101df906107f3565b60405180910390fd5b600354341161022c576040517f08c379a000000000000000000000000000000000000000000000000000000000815260040161022390610813565b60405180910390fd5b6000600354146102b15760035460046000600260009054906101000a900473ffffffffffffffffffffffffffffffffffffffff1673ffffffffffffffffffffffffffffffffffffffff1673ffffffffffffffffffffffffffffffffffffffff16815260200190815260200160002060008282546102a9919061089f565b925050819055505b3460038190555033600260006101000a81548173ffffffffffffffffffffffffffffffffffffffff021916908373ffffffffffffffffffffffffffffffffffffffff1602179055507fd8f1dcefca138e7252b01cd1477fab84d8763d9b0c50b16805e3190c1c393a34600260009054906101000a900473ffffffffffffffffffffffffffffffffffffffff1660035460405161034e9291906107af565b60405180910390a1565b600154421161039c576040517f08c379a000000000000000000000000000000000000000000000000000000000815260040161039390610853565b60405180910390fd5b600560009054906101000a900460ff16156103ec576040517f08c379a00000000000000000000000000000000000000000000000000000000081526004016103e390610833565b60405180910390fd5b6001600560006101000a81548160ff02191690831515021790555060008054906101000a900473ffffffffffffffffffffffffffffffffffffffff1673ffffffffffffffffffffffffffffffffffffffff166108fc6003549081150290604051600060405180830381858888f1935050505015801561046f573d6000803e3d6000fd5b507f6e0e2174dbf7b77c08b6f9a2799b9feda84a6d54a5644864582040100a47d4c5600260009054906101000a900473ffffffffffffffffffffffffffffffffffffffff166003546040516104c59291906107af565b60405180910390a1565b60008054906101000a900473ffffffffffffffffffffffffffffffffffffffff1681565b600080600460003373ffffffffffffffffffffffffffffffffffffffff1673ffffffffffffffffffffffffffffffffffffffff16815260200190815260200160002054905060003390506000821115610614576000600460003373ffffffffffffffffffffffffffffffffffffffff1673ffffffffffffffffffffffffffffffffffffffff168152602001908152602001600020819055508073ffffffffffffffffffffffffffffffffffffffff166108fc839081150290604051600060405180830381858888f193505050506106135781600460003373ffffffffffffffffffffffffffffffffffffffff1673ffffffffffffffffffffffffffffffffffffffff1681526020019081526020016000208190555060009250505061061b565b5b6001925050505b90565b60015481565b6000600560009054906101000a900460ff16905090565b600260009054906101000a900473ffffffffffffffffffffffffffffffffffffffff1681565b60035481565b610670816108f5565b82525050565b61067f81610907565b82525050565b600061069260158361088e565b91507f41756374696f6e20616c726561647920656e64656400000000000000000000006000830152602082019050919050565b60006106d2601a8361088e565b91507f596f75206e65656420746f20626964206d6f7265206d6f6e65790000000000006000830152602082019050919050565b600061071260158361088e565b91507f61756374696f6e456e64207761732063616c6c656400000000000000000000006000830152602082019050919050565b600061075260188361088e565b91507f41756374696f6e206e6f74207965742066696e697368656400000000000000006000830152602082019050919050565b61078e81610933565b82525050565b60006020820190506107a96000830184610667565b92915050565b60006040820190506107c46000830185610667565b6107d16020830184610785565b9392505050565b60006020820190506107ed6000830184610676565b92915050565b6000602082019050818103600083015261080c81610685565b9050919050565b6000602082019050818103600083015261082c816106c5565b9050919050565b6000602082019050818103600083015261084c81610705565b9050919050565b6000602082019050818103600083015261086c81610745565b9050919050565b60006020820190506108886000830184610785565b92915050565b600082825260208201905092915050565b60006108aa82610933565b91506108b583610933565b9250827fffffffffffffffffffffffffffffffffffffffffffffffffffffffffffffffff038211156108ea576108e961093d565b5b828201905092915050565b600061090082610913565b9050919050565b60008115159050919050565b600073ffffffffffffffffffffffffffffffffffffffff82169050919050565b6000819050919050565b7f4e487b7100000000000000000000000000000000000000000000000000000000600052601160045260246000fdfea264697066735822122081d81493abffa6c8ffe9e74ff5864a2819c71bcabe7a5ed26e6ec8e8ff8a124d64736f6c63430008000033",
  "immutableReferences": {},
  "source": "pragma solidity >=0.4.22 <0.9.0;\n\ncontract smartAuction{\n    address  public beneficiary;\n    uint public auctionEndTime;\n\n    address public highestBidder;\n    uint public highestBid;\n\n    mapping(address=>uint) pendingReturns;\n\n    bool ended;\n    event highestBidIncreased(address bidder,uint amount);\n    event auctionEnded(address winner,uint amount);\n\n    constructor(uint _biddingTime) public{\n        beneficiary=msg.sender;\n        auctionEndTime =block.timestamp + _biddingTime;\n    }\n    function bid()public payable{\n        require(block.timestamp <=auctionEndTime,\"Auction already ended\");\n        require(msg.value>highestBid,\"You need to bid more money\");\n        if(highestBid!=0){\n            pendingReturns[highestBidder]+=highestBid;\n        }\n        highestBid=msg.value;\n        highestBidder=msg.sender;\n\n        emit highestBidIncreased(highestBidder, highestBid);\n\n    }\n    function withdraw()public returns(bool){\n        uint amount=pendingReturns[msg.sender];\n        address payable withdrawer=payable(msg.sender);\n        if(amount>0){\n            pendingReturns[msg.sender]=0;\n            if(!withdrawer.send(amount)){\n                pendingReturns[msg.sender]=amount;\n                return false;\n            }\n        }\n        return true;\n    }\n    function auctionEnd() public{\n        require(block.timestamp>auctionEndTime,\"Auction not yet finished\");\n        require(!ended,\"auctionEnd was called\");\n\n        ended=true;\n        payable(beneficiary).transfer(highestBid);\n\n        emit auctionEnded(highestBidder,highestBid);\n\n\n    }\n    function auctionAlreadyEnded() public view returns(bool){\n        return ended;\n    }\n}",
  "sourcePath": "/home/dhruv/Desktop/webdev/BlockChain/smartAuction/contracts/smartAuction.sol",
  "compiler": {
    "name": "solc",
    "version": "0.8.0+commit.c7dfd78e.Emscripten.clang"
  },
  "schemaVersion": "3.4.1",
  "updatedAt": "2021-06-10T07:40:01.175Z",
  "networkType": "ethereum",
  "devdoc": {
    "kind": "dev",
    "methods": {},
    "version": 1
  },
  "userdoc": {
    "kind": "user",
    "methods": {},
    "version": 1
  }
}